S01700004763634170706C69636174696F6E322E737265635A
S11300000C9440000C945D000C945D000C94EE0381
S11300100C945D000C945D000C945D000C94CA0378
S11300200C945D000C945D000C945D000C945D00D8
S11300300C945D000C945D000C945D000C945D00C8
S11300400C945D000C945D000C945D000C945D00B8
S11300500C945D00EE071C081C081C081C081C08F6
S11300601C0805081C081C081C081C081C081C0883
S11300709607A107AC07B707C207CD07D807E30760
S113008011241FBECFE5D8E0DEBFCDBF12E0A0E64D
S1130090B0E0ECE4FAE102C005900D92A433B1079C
S11300A0D9F722E0A4E3B2E001C01D92A634B2075E
S11300B0E1F70E9471070C94240D0C94000085BB99
S11300C094989398909A83EF91E00197F1F700C088
S11300D00000909883EF91E00197F1F700C00000D1
S11300E0089585BB949A9398909A83EF91E0019731
S11300F0F1F700C00000909883EF91E00197F1F7C9
S113010000C0000008958FEF84BB81BB909883EFFB
S113011091E00197F1F700C0000088E30E945F00BE
S11301208CE00E945F0081E00E945F0083EF91E019
S11301300197F1F700C0000086E00E945F00089577
S11301400F931F93CF93FC018081882359F08F0173
S1130150C0E00E947100CF5FF801EC0FF11D8081B7
S11301608111F7CFCF911F910F91089580EF8ABB32
S11301708BB38E6F8BBB8BB38E708BBB089587E86C
S113018093E10197F1F700C0000089B38E708E30BF
S1130190B1F3E7E8F3E13197F1F700C0000089B368
S11301A08E708E3061F38EEE8BBB99B39E709E3051
S11301B091F48EED8BBB99B39E709E3071F48EEBEF
S11301C08BBB99B39E709E3051F48EE78BBB99B371
S11301D09E7083E005C080E003C081E001C082E03E
S11301E09C3059F490E0FC01EE0FFF1F8E0F9F1F0F
S11301F0FC01EF59FF4F808117C09A3059F490E009
S1130200FC01EE0FFF1F8E0F9F1FFC01EF59FF4FE4
S113021081810AC090E0FC01EE0FFF1F8E0F9F1F2B
S1130220FC01EF59FF4F8281E3EDF0E33197F1F7E1
S113023000C000000895CF93DF93C0E0D0E06FEFDB
S1130240CE010E94E00C2196CF3F83E0D807B9F796
S1130250DF91CF9108950F931F93CF93DF931F9254
S1130260CDB7DEB700E010E041E050E0B801CE01C8
S113027001960E94BE0C89818F3F31F00C5F1F4FA5
S1130280011584E0180781F7C8010F90DF91CF9121
S11302901F910F910895EF92FF920F931F93CF93A5
S11302A0DF9300D000D01F92CDB7DEB77C0100E011
S11302B010E044E050E0B801CE0101960E94BE0C6B
S11302C01D828981882379F0B701CE0101960E94AD
S11302D0D209892B51F00C5F1F4F003981E01807B8
S11302E041F780E003C080E001C081E00F900F90EF
S11302F00F900F900F90DF91CF911F910F91FF906E
S1130300EF900895CF93DF93EC010E944B0181306D
S113031081F00E942B019C012C5F3F4F211534403A
S113032050F444E050E0BC01CE010E94D60C81E0C0
S113033003C080E001C082E0DF91CF9108956F9205
S11303407F928F929F92AF92BF92CF92DF92EF9261
S1130350FF920F931F93CF93DF9300D000D01F928F
S1130360CDB7DEB73C01FE01319685E0DF011D9279
S11303708A95E9F7C12CD12C4F015E01F5E0AF0E4F
S1130380B11C28C0C701800F911F0E94CE0CD80158
S11303908D938D01AA16BB06A9F71D82B301C40172
S11303A00E94D209892B79F486010C5F1F4F6FEFED
S11303B0C6010E94E00CBFEFCB1ADB0A0C151D0529
S11303C0B1F780E014C0E4E0CE0ED11CC114F4E017
S11303D0DF0629F084017601E818F908D3CF81E01B
S11303E00E945F008DE690E00E94A00081E00F90E3
S11303F00F900F900F900F90DF91CF911F910F915D
S1130400FF90EF90DF90CF90BF90AF909F908F9030
S11304107F906F9008954F925F926F927F928F9228
S11304209F92AF92BF92CF92DF92EF92FF920F937F
S11304301F93CF93DF9300D000D01F92CDB7DEB7C8
S1130440CE0101964C01EE24FF24E81AF90A80E05B
S113045094E05C01A818B9086E0195E0C90ED11C9E
S1130460512C44244394642C2EC0C8018E0D9F1D2E
S11304700E94CE0CF80181938F018F3F09F0762CF6
S1130480C016D10691F75D827720B9F0842D0E94C1
S11304905F008EE790E00E94A00080EC0E945F0065
S11304A0CE0101960E94A000FFE72AE186E0F15008
S11304B020408040E1F700C0000094E0E90EF11C08
S11304C0EA14FB0419F08401752CCFCF0F900F9020
S11304D00F900F900F90DF91CF911F910F91FF908C
S11304E0EF90DF90CF90BF90AF909F908F907F90D0
S11304F06F905F904F90089589B990BD88E18AB953
S113050086E080BD08955D9BFECF8CB90895CF939E
S1130510DF93EC018881882331F021960E948302C5
S113052089918111FBCFDF91CF9108959F938F9390
S11305308AE890E09F938F937F936F930E940B0AB6
S11305400F900F900F900F900F900F900895CF93EE
S1130550DF93C9E1D0E08AE20E9483022197D9F7B0
S11305608DE00E9483028AE00E948302DF91CF9192
S113057008954F925F926F927F928F929F92AF9263
S1130580BF92CF92DF92EF92FF920F931F93CF937C
S1130590DF93CDB7DEB729970FB6F894DEBF0FBE51
S11305A0CDBF80913F0290914002892B09F04FC04A
S11305B083E390E00E947C0281E090E0909340020B
S11305C080933F0244C0C8018E0D9F1D0E94CE0C33
S11305D0F80181938F018F3F09F0762CC016D10664
S11305E091F75D827720E9F043948DE890E00E94D2
S11305F08702BE016A5F7F4F842D90E00E949602BD
S1130600CE0106960E94870280E20E948302CE01F8
S113061001960E9487028DE00E9483028AE00E9474
S11306208302F4E0EF0EF11CEA14FB0419F08401D8
S1130630752CC9CF81EA90E00E9487028DE00E9468
S113064083028AE00E9483020E94A70215C0CE01A1
S113065001964C01EE24FF24E81AF90A80E094E0A4
S11306605C01A818B908412C6E0195E0C90ED11C93
S1130670512C66246394DBCF29960FB6F894DEBF21
S11306800FBECDBFDF91CF911F910F91FF90EF90DF
S1130690DF90CF90BF90AF909F908F907F906F909E
S11306A05F904F9008958D9A8E980895959A2FE7AC
S11306B08AE196E0215080409040E1F700C00000BC
S11306C095980895869918C081E090E0A0E0B0E084
S11306D086990DC00196A11DB11D81152EE39207C7
S11306E029E4A207B105A1F78FEF9FEF08958115C3
S11306F09E43A944B10559F11FBC83E08EBD1DBCC6
S11307001CBC869B14C08CB59DB58D349D4110F5E1
S11307108FEF9DE3A9E4B0E0869B09C02CB53DB5FD
S11307202D343D41D0F40197A109B109A9F78CB545
S11307309DB5A0E0B0E01EBC8D342DE19207A1056B
S1130740B10570F4B695A7959795879508958FEFA1
S11307509FEF08958EEF9FEF08958EEF9FEF08951A
S11307608EEF9FEF0895E1E4F2E01082118212828D
S11307701382148210923C0210923E0210923D02A7
S1130780089581E00E945F0082E00E945F000E9461
S1130790B30308951F920F920FB60F9211248F93F3
S11307A09F9380913502909136020F9750F4809177
S11307B03502909136020196909336028093350269
S11307C006C081E0809334028EB58A7F8EBD9F91EE
S11307D08F910F900FBE0F901F9018951F920F923C
S11307E00FB60F9211242F933F934F935F936F9300
S11307F07F938F939F93AF93BF93EF93FF930E9445
S1130800BF00833251F490913B029923D9F081E0E7
S113081080933D020E94B6001AC090913E0294302B
S113082060F4882351F0E0913E0291E09E0F909392
S11308303E02F0E0EF5BFD4F808380933C020E9418
S1130840B60005C090913E02943068F3F6CFFF9154
S1130850EF91BF91AF919F918F917F916F915F9134
S11308604F913F912F910F900FBE0F901F901895AD
S1130870AF92BF92CF92DF92EF92FF920F931F93AA
S1130880CF93DF93CDB7DEB760970FB6F894DEBF92
S11308900FBECDBFCC24CA94DC2C0F2EFAE8EF2E69
S11308A0F0E0FF2EF02D8E010F5F1F4F87EA91E6D7
S11308B00197F1F700C0000080913D02882329F0E0
S11308C010923D020E94C103A4C00E9456030E94DC
S11308D062038F3F2FEF920751F40E94C10380E01F
S11308E00E945F008FEA90E00E94A000DFCF8E3F5D
S11308F02FEF920751F40E94C10380E00E945F0031
S113090085EB90E00E94A000D1CFBC0180E090E094
S11309100E94D10829E23CE54FE05DE30E945F09B3
S113092020E030E040E051E40E945F099B01AC010B
S11309300E942F0820E030E040E05FE30E945F095E
S113094020E030E040E05FE30E942F080E949B0813
S1130950862F972F5C017F936F93FF92EF921F93E3
S11309600F930E940B0A0E94C10380E00E945F0063
S113097081EC90E00E94A000C8010E94A0008CECD1
S113098090E00E94A0000F900F900F900F900F9096
S11309900F908AE0A816B1044CF48091370290912C
S11309A0380201969093380280933702809137027F
S11309B090913802C816D90609F1C0903702D09038
S11309C0380280EC0E945F008091370290913802D7
S11309D09F938F93FF92EF921F930F930E940B0AA2
S11309E080ED90E00E94A000C8010E94A0000F903A
S11309F00F900F900F900F900F9001C06C019FE328
S1130A0022E48FE0915020408040E1F700C00000D4
S1130A104DCF60960FB6F894DEBF0FBECDBFDF9109
S1130A20CF911F910F91FF90EF90DF90CF90BF90E7
S1130A30AF900895BA98C29A84B7806484BF80E264
S1130A408BBF78940895FC0180818130A9F028F04F
S1130A50823009F1833071F1089581E00E945F00D2
S1130A6088ED90E00E94A00080EC0E945F0087EE79
S1130A7090E00E94A000089581E00E945F0084EF4E
S1130A8090E00E94A00080EC0E945F0086E091E06C
S1130A900E94A000089581E00E945F0086E191E039
S1130AA00E94A00080EC0E945F0087E291E00E9417
S1130AB0A000089581E00E945F0086E391E00E9417
S1130AC0A00080EC0E945F0088E491E00E94A000F6
S1130AD0089581E00E945F008BE591E00E94A000F0
S1130AE00E940B022FE78AE196E02150804090405B
S1130AF0E1F700C000000E94C1030895DF92EF9265
S1130B00FF920F931F93CF93DF93CDB7DEB7609718
S1130B100FB6F894DEBF0FBECDBF81E00E945F0028
S1130B2087E691E00E94A00080EE87B987E886B945
S1130B3080913D02882331F010923D020E94C1034E
S1130B4016B834C00F2EFEE6EF2EF1E0FF2EF02D86
S1130B506894DD24D4F88E010F5F1F4F369A349BBE
S1130B60FECF85B185B11F928F93FF92EF921F92B2
S1130B70DF921F930F930E94DB0980EC0E945F00B9
S1130B80C8010E94A0002FE73AE186E021503040DE
S1130B908040E1F700C0000080913D020FB6F89458
S1130BA0DEBF0FBECDBF8823C9F2C6CF60960FB695
S1130BB0F894DEBF0FBECDBFDF91CF911F910F918F
S1130BC0FF90EF90DF90089581E00E945F0083E73B
S1130BD091E00E94A0000E94B9022FE78AE196E00A
S1130BE0215080409040E1F700C000000E94C10302
S1130BF008958EB588608EBD88E09DE39BBD8ABD57
S1130C008EB585608EBD89B7806189BF0895C79A06
S1130C102FE78AE196E0215080409040E1F700C040
S1130C200000C7982FE78AE196E021508040904069
S1130C30E1F700C0000008950F931F93CF9381E064
S1130C400E945F0083E891E00E94A0002FE78AE100
S1130C5096E0215080409040E1F700C00000809170
S1130C6060008130A1F40E94F90581E00E945F00D8
S1130C7085E991E00E94A000EFE7FAE126E0E15067
S1130C80F0402040E1F700C0000010926000109294
S1130C903E0210923D0281E00E945F0086EA91E0EC
S1130CA00E94A00001E412E05DC080913D0288230F
S1130CB029F010923D020E94C1036BC080EC0E9497
S1130CC05F0080913E02882369F0C0E0EC2FF0E0E1
S1130CD0EF5BFD4F80810E947100CF5F80913E02E7
S1130CE0C817A0F38FE79AE1E6E081509040E04016
S1130CF0E1F700C0000080913E02843099F5F801CC
S1130D001482C8010E948201C82F81E00E945F0002
S1130D10C13029F483EB91E00E94A00011C0C111FD
S1130D2007C080EC91E00E94A0000E94070608C062
S1130D30C23031F480ED91E00E94A0000E940706C9
S1130D40FFE72AE186E0F15020408040E1F700C04F
S1130D50000010923E0281E00E945F0086EA91E06A
S1130D600E94A00080913402882309F49ECF81E080
S1130D700E945F008EED91E00E94A0009FE7EAE1EF
S1130D80F6E09150E040F040E1F700C000000E941E
S1130D90C103CF911F910F910895CF9381E00E94D9
S1130DA05F0086EA91E00E94A00010923E02109239
S1130DB03D0280913D02882329F010923D020E9459
S1130DC0C1033AC080EC0E945F0080913E028823F8
S1130DD069F0C0E0EC2FF0E0EF5BFD4F80810E94F2
S1130DE07100CF5F80913E02C817A0F380913E024C
S1130DF08430F9F61092450281E492E00E949F014A
S1130E00C82F81E00E945F00C11105C08FEE91E000
S1130E100E94A00006C081E092E00E94A0000E940F
S1130E2007062FE78AE196E0215080409040E1F7E1
S1130E3000C000000E94C103CF910895CF9381E0C8
S1130E400E945F0086EA91E00E94A00010923E0298
S1130E5010923D0280913D02882329F010923D02B8
S1130E600E94C1033AC080EC0E945F0080913E0260
S1130E70882369F0C0E0EC2FF0E0EF5BFD4F808148
S1130E800E947100CF5F80913E02C817A0F3809149
S1130E903E028430F9F61092450281E492E00E9409
S1130EA04B01C82F81E00E945F00CC2329F083E12D
S1130EB092E00E94A00006C08CE192E00E94A00093
S1130EC00E9407062FE78AE196E021508040904077
S1130ED0E1F700C000000E94C103CF910895BF9ABA
S1130EE008950E9453030E9483000E94B6000E944A
S1130EF01A050E946F078AE392E00E942305D1E05D
S1130F0080913C028823E1F3C0913C0210923C02A0
S1130F100E94C1038C2F90E0FC01B397E631F105E8
S1130F2008F08AC0E65DFF4F0C94CC09D0933B02D5
S1130F300E941C0610923B028AE392E00E94230561
S1130F40DFCFD0933B020E941E0710923B028AE33C
S1130F5092E00E942305D4CFD0933B020E946905FE
S1130F6010923B028AE392E00E942305C9CFD093FA
S1130F703B020E947E0510923B028AE392E00E94AB
S1130F802305BECFD0933B020E94E40510923B029E
S1130F908AE392E00E942305B3CFD0933B020E94E0
S1130FA0380410923B028AE392E00E942305A8CF02
S1130FB0D0933B020E941B0110923B028AE392E011
S1130FC00E9423059DCFD0933B020E94CD06109230
S1130FD03B028AE392E00E94230592CF80913A0279
S1130FE08093390280913A0290E001968370907860
S1130FF0992324F401978C6F9F6F019680933A0292
S11310008AE392E00E9423057BCF80913A02809389
S1131010390280913A0290E0039683709078992384
S113102024F401978C6F9F6F019680933A028AE3B0
S113103092E00E94230564CF84E292E00E94A00023
S11310402FE78AE196E0215080409040E1F700C00C
S113105000008AE392E00E94230552CF5058BB2738
S1131060AA270E9446080C9425090E94170938F003
S11310700E941E0920F039F49F3F19F426F40C94C1
S113108014090EF4E095E7FB0C940E09E92F0E9475
S1131090360958F3BA17620773078407950720F0D7
S11310A079F4A6F50C9458090EF4E0950B2EBA2F9A
S11310B0A02D0B01B90190010C01CA01A00111245A
S11310C0FF27591B99F0593F50F4503E68F11A1606
S11310D0F040A22F232F342F4427585FF3CF469597
S11310E037952795A795F0405395C9F77EF41F16B9
S11310F0BA0B620B730B840BBAF09150A1F0FF0F83
S1131100BB1F661F771F881FC2F70EC0BA0F621F6E
S1131110731F841F48F4879577956795B795F7955E
S11311209E3F08F0B0CF9395880F08F09927EE0FF3
S11311309795879508950E94A2086894B1110C941C
S1131140590908950E943E0988F09F5798F0B92FD5
S11311509927B751B0F0E1F0660F771F881F991FE8
S11311601AF0BA95C9F714C0B13091F00E94580929
S1131170B1E008950C945809672F782F8827B85F39
S113118039F0B93FCCF3869577956795B395D9F740
S11311903EF490958095709561957F4F8F4F9F4F4A
S11311A00895E89409C097FB3EF490958095709556
S11311B061957F4F8F4F9F4F9923A9F0F92F96E99F
S11311C0BB279395F695879577956795B795F11114
S11311D0F8CFFAF4BB0F11F460FF1BC06F5F7F4FB1
S11311E08F4F9F4F16C0882311F096E911C07723C3
S11311F021F09EE8872F762F05C0662371F096E8CC
S1131200862F70E060E02AF09A95660F771F881F9A
S1131210DAF7880F9695879597F9089597F99F6758
S113122080E870E060E008959FEF80EC089500246A
S11312300A941616170618060906089500240A9437
S113124012161306140605060895092E0394000CBD
S113125011F4882352F0BB0F40F4BF2B11F460FF4C
S113126004C06F5F7F4F8F4F9F4F089557FD905875
S1131270440F551F59F05F3F71F04795880F97FB56
S1131280991F61F09F3F79F0879508951216130610
S11312901406551FF2CF4695F1DF08C0161617063F
S11312A01806991FF1CF8695710561050894089574
S11312B0E894BB2766277727CB0197F908950E9406
S11312C072090C9425090E94170938F00E941E091E
S11312D020F0952311F00C940E090C941409112498
S11312E00C9459090E94360970F3959FC1F3950F28
S11312F050E0551F629FF001729FBB27F00DB11D96
S1131300639FAA27F00DB11DAA1F649F6627B00D25
S1131310A11D661F829F2227B00DA11D621F739F0E
S1131320B00DA11D621F839FA00D611D221F749F1C
S11313303327A00D611D231F849F600D211D822F63
S1131340762F6A2F11249F5750409AF0F1F088238A
S11313504AF0EE0FFF1FBB1F661F771F881F9150B7
S11313605040A9F79E3F510580F00C940E090C944F
S113137059095F3FE4F3983ED4F3869577956795D2
S1131380B795F795E7959F5FC1F7FE2B880F911DE1
S11313909695879597F90895EE0FFF1F0590F491A0
S11313A0E02D0994FB01DC018D910190801901105D
S11313B0D9F3990B0895AEE0B0E0E1EEF9E00C94B6
S11313C0FB0C0D891E898F89988D26E02C831A8346
S11313D0098397FF02C080E090E801979E838D8384
S11313E0AE01455E5F4F698D7A8DCE0101960E94F4
S11313F02D0A4D815E8157FD0AC02F813885421721
S113140053070CF49A01F801E20FF31F10822E9691
S1131410E4E00C94170DAEE0B0E0E1E1FAE00C94E6
S1131420FB0C0D891E8986E08C831A8309838FEF58
S11314309FE79E838D83AE01475E5F4F6F89788DF2
S1131440CE0101960E942D0AEF81F885E00FF11F6D
S113145010822E96E4E00C94170DABE0B0E0E3E3C9
S1131460FAE00C94ED0C6C017B018A01FC011782FB
S11314701682838181FFCCC1CE0101963C01F60125
S11314809381F70193FD859193FF81917F018823D7
S113149009F4BAC1853239F493FD859193FF8191A2
S11314A07F01853229F4B60190E00E94240CE7CF35
S11314B0912C212C312CFFE1F315D8F08B3279F0EB
S11314C038F4803279F08332A1F4232D20611DC0D9
S11314D08D3261F0803369F4232D216016C0832D91
S11314E08260382EE32DE4603E2E2AC0F32DF8608E
S11314F01DC037FC2DC020ED280F2A3040F08E325D
S1131500B9F436FC81C1232D2064322E19C036FE75
S113151006C08AE0989E200D1124922E11C0EAE0A4
S11315202E9E200D1124222EF32DF0623F2E08C092
S11315308C3621F4832D8068382E02C0883641F41D
S1131540F70193FD859193FF81917F018111B3CFC1
S1131550982F9F7D9554933028F40C5F1F4F9FE381
S113156099830DC0833631F0833771F0833509F0E8
S113157059C021C0F801808189830E5F1F4F8824E0
S11315808394912C530113C02801F2E04F0E511C97
S1131590F801A080B18036FE03C0692D70E002C05E
S11315A06FEF7FEFC5010E94190C4C018201F32DEE
S11315B0FF773F2E16C0280122E0420E511CF8018D
S11315C0A080B18036FE03C0692D70E002C06FEFC9
S11315D07FEFC5010E940E0C4C01F32DF0683F2EE5
S11315E0820133FC1BC0822D90E088169906B0F46A
S11315F0B60180E290E00E94240C2A94F4CFF50115
S113160037FC859137FE81915F01B60190E00E941D
S1131610240C21102A9421E0821A91088114910447
S113162071F7E8C0843611F0893641F5F80137FEC8
S113163007C060817181828193810C5F1F4F08C054
S113164060817181072E000C880B990B0E5F1F4F70
S1131650F32DFF763F2E97FF09C0909580957095E6
S113166061957F4F8F4F9F4FF0683F2E2AE030E007
S1131670A3010E94600C882E861845C0853731F47A
S1131680232D2F7EB22E2AE030E025C0932D997FA2
S1131690B92E8F36C1F018F4883579F0B5C080378B
S11316A019F0883721F0B0C0E92FE061BE2EB4FEF6
S11316B00DC0FB2DF460BF2E09C034FE0AC0292FD3
S11316C02660B22E06C028E030E005C020E130E0FC
S11316D002C020E132E0F801B7FE07C060817181E9
S11316E0828193810C5F1F4F06C06081718180E00D
S11316F090E00E5F1F4FA3010E94600C882E861895
S1131700FB2DFF773F2E36FE0DC0232D2E7FA22EFC
S1131710891458F434FE0BC032FC09C0832D8E7E2C
S1131720A82E05C0B82CA32C03C0B82C01C0B92C1A
S1131730A4FE0FC0FE01E80DF11D8081803321F469
S11317409A2D997EA92E09C0A2FE06C0B394B39423
S113175004C08A2D867809F0B394A3FC11C0A0FEBE
S113176006C0B21488F4280C922C9B180EC0B21434
S113177060F4B60180E290E00E94240CB394F7CFA9
S1131780B21418F42B1802C0982C212CA4FE10C0FB
S1131790B60180E390E00E94240CA2FE17C0A1FCD5
S11317A003C088E790E002C088E590E0B6010CC071
S11317B08A2D867859F0A1FE02C08BE201C080E236
S11317C0A7FC8DE2B60190E00E94240C891438F441
S11317D0B60180E390E00E94240C9A94F7CF8A9497
S11317E0F301E80DF11D8081B60190E00E94240C04
S11317F08110F5CF222009F442CEB60180E290E0B8
S11318000E94240C2A94F6CFF6018681978102C0A7
S11318108FEF9FEF2B96E2E10C94090DFC010590EC
S1131820615070400110D8F7809590958E0F9F1FDE
S11318300895FC016150704001900110D8F7809523
S113184090958E0F9F1F08950F931F93CF93DF934F
S1131850FB01238121FD03C08FEF9FEF2CC022FFEA
S113186016C046815781248135814217530744F4B9
S1131870A081B1819D012F5F3F4F318320838C93E1
S1131880268137812F5F3F4F3783268314C08B0116
S1131890EC01FB010084F185E02D0995892BE1F62B
S11318A0D80116968D919C911797019617969C9343
S11318B08E931697CE01DF91CF911F910F910895CA
S11318C0FA01AA27283051F1203181F1E8946F936D
S11318D06E7F6E5F7F4F8F4F9F4FAF4FB1E03ED013
S11318E0B4E03CD0670F781F891F9A1FA11D680FB1
S11318F0791F8A1F911DA11D6A0F711D811D911DE4
S1131900A11D20D009F468943F912AE0269F112458
S11319103019305D3193DEF6CF010895462F4770BC
S1131920405D4193B3E00FD0C9F7F6CF462F4F7017
S1131930405D4A3318F0495D31FD4052419302D075
S1131940A9F7EACFB4E0A69597958795779567951B
S1131950BA95C9F700976105710508959B01AC011B
S11319600A2E06945795479537952795BA95C9F742
S1131970620F731F841F951FA01D0895DC01CB0106
S1131980FC01E199FECF06C0FFBBEEBBE09A3196A5
S11319900DB20D9241505040B8F70895E199FECF31
S11319A09FBB8EBBE09A99278DB30895DC01CB01D0
S11319B003C02D910E94E10C41505040D0F708958E
S11319C0262FE199FECF9FBB8EBB2DBB0FB6F8949B
S11319D0E29AE19A0FBE019608952F923F924F9298
S11319E05F926F927F928F929F92AF92BF92CF92AB
S11319F0DF92EF92FF920F931F93CF93DF93CDB7B4
S1131A00DEB7CA1BDB0B0FB6F894DEBF0FBECDBF2B
S1131A1009942A88398848885F846E847D848C84FC
S1131A209B84AA84B984C884DF80EE80FD800C8105
S1131A301B81AA81B981CE0FD11D0FB6F894DEBFE8
S10F1A400FBECDBFED010895F894FFCF58
S1131A4C013132333435363738392A302345727202
S1131A5C6F723A204E6F7420466F756E640020418D
S1131A6C7474656E646565733A002564004174741E
S1131A7C656E64656573206E756D626572203A20BF
S1131A8C0020456E64206F66204C6973740A00450F
S1131A9C72726F72004E6F204F62737461636C6567
S1131AAC0044697374616E63653A200020636D00B1
S1131ABC436F756E743A200020312E204174746586
S1131ACC6E64616E63650020322E20436865636B1F
S1131ADC2D696E0020332E2056696577205374755A
S1131AEC64656E74730020342E2054656D7020531D
S1131AFC656E736F720020352E2053747564656E99
S1131B0C7420496E666F0020362E20536F6E6172FE
S1131B1C20496E666F0020372E2044656C65746511
S1131B2C20454550524F4D0020382E2044656C659D
S1131B3C74652053747564656E74002061747465E7
S1131B4C6E646565733A002054656D703A002564C3
S1131B5C2043002055534152543A2053656E646916
S1131B6C6E670020417474656E64616E6365205207
S1131B7C65616479002054696D65722073746172B7
S1131B8C7465643A290020456E74657220436F6451
S1131B9C653A0020436F64652053617665642100C7
S1131BAC204475706C696361746520436F646500CF
S1131BBC20454550524F4D2046756C6C21002054E5
S1131BCC494D45204953204F5645522E2E2E002068
S1131BDC53747564656E742044656C657465642116
S1131BEC0020537464206E6F7420666F756E646588
S1131BFC6421002050726573656E74002041627319
S1131C0C656E740020496E76616C6964204F707443
S1071C1C696F6E007A
S9030000FC
